{
    "_format": "hh-sol-artifact-1",
    "contractName": "WavePortal",
    "sourceName": "contracts/WavePortal.sol",
    "abi": [
        {
            "inputs": [],
            "stateMutability": "nonpayable",
            "type": "constructor"
        },
        {
            "anonymous": false,
            "inputs": [
                {
                    "indexed": true,
                    "internalType": "address",
                    "name": "from",
                    "type": "address"
                },
                {
                    "indexed": false,
                    "internalType": "uint256",
                    "name": "timestamp",
                    "type": "uint256"
                },
                {
                    "indexed": false,
                    "internalType": "string",
                    "name": "message",
                    "type": "string"
                }
            ],
            "name": "NewWave",
            "type": "event"
        },
        {
            "inputs": [],
            "name": "getAllWaves",
            "outputs": [
                {
                    "components": [
                        {
                            "internalType": "address",
                            "name": "waver",
                            "type": "address"
                        },
                        {
                            "internalType": "string",
                            "name": "message",
                            "type": "string"
                        },
                        {
                            "internalType": "uint256",
                            "name": "timestamp",
                            "type": "uint256"
                        }
                    ],
                    "internalType": "struct WavePortal.Wave[]",
                    "name": "",
                    "type": "tuple[]"
                }
            ],
            "stateMutability": "view",
            "type": "function"
        },
        {
            "inputs": [],
            "name": "getTotalWaves",
            "outputs": [
                {
                    "internalType": "uint256",
                    "name": "",
                    "type": "uint256"
                }
            ],
            "stateMutability": "view",
            "type": "function"
        },
        {
            "inputs": [],
            "name": "totalWaves",
            "outputs": [
                {
                    "internalType": "uint256",
                    "name": "",
                    "type": "uint256"
                }
            ],
            "stateMutability": "view",
            "type": "function"
        },
        {
            "inputs": [
                {
                    "internalType": "string",
                    "name": "_message",
                    "type": "string"
                }
            ],
            "name": "wave",
            "outputs": [],
            "stateMutability": "nonpayable",
            "type": "function"
        },
        {
            "inputs": [
                {
                    "internalType": "uint256",
                    "name": "",
                    "type": "uint256"
                }
            ],
            "name": "waves",
            "outputs": [
                {
                    "internalType": "address",
                    "name": "waver",
                    "type": "address"
                },
                {
                    "internalType": "string",
                    "name": "message",
                    "type": "string"
                },
                {
                    "internalType": "uint256",
                    "name": "timestamp",
                    "type": "uint256"
                }
            ],
            "stateMutability": "view",
            "type": "function"
        }
    ],
    "bytecode": "0x60806040523480156200001157600080fd5b506200005d6040518060400160405280601981526020017f4920414d20534d41525420434f4e54524143542e20504f472e000000000000008152506200006360201b620005001760201c565b620001f7565b62000103816040516024016200007a919062000170565b6040516020818303038152906040527f41304fac000000000000000000000000000000000000000000000000000000007bffffffffffffffffffffffffffffffffffffffffffffffffffffffff19166020820180517bffffffffffffffffffffffffffffffffffffffffffffffffffffffff83818316178352505050506200010660201b60201c565b50565b60008151905060006a636f6e736f6c652e6c6f679050602083016000808483855afa5050505050565b60006200013c8262000194565b6200014881856200019f565b93506200015a818560208601620001b0565b6200016581620001e6565b840191505092915050565b600060208201905081810360008301526200018c81846200012f565b905092915050565b600081519050919050565b600082825260208201905092915050565b60005b83811015620001d0578082015181840152602081019050620001b3565b83811115620001e0576000848401525b50505050565b6000601f19601f8301169050919050565b610e2e80620002076000396000f3fe608060405234801561001057600080fd5b50600436106100575760003560e01c8063291bcab31461005c578063449d46c01461007a5780639a2cdc0814610096578063bd43a908146100b4578063c781267a146100d2575b600080fd5b610064610104565b6040516100719190610b05565b60405180910390f35b610094600480360381019061008f919061081d565b61010a565b005b61009e610282565b6040516100ab9190610b05565b60405180910390f35b6100bc6102cd565b6040516100c99190610a4c565b60405180910390f35b6100ec60048036038101906100e7919061085e565b61041e565b6040516100fb93929190610a0e565b60405180910390f35b60005481565b600160008082825461011c9190610c0c565b925050819055506101636040518060400160405280601681526020017f257320776176656420772f206d657373616765202573000000000000000000008152503383610599565b600160405180606001604052803373ffffffffffffffffffffffffffffffffffffffff16815260200183815260200142815250908060018154018082558091505060019003906000526020600020906003020160009091909190915060008201518160000160006101000a81548173ffffffffffffffffffffffffffffffffffffffff021916908373ffffffffffffffffffffffffffffffffffffffff16021790555060208201518160010190805190602001906102229291906106fd565b506040820151816002015550503373ffffffffffffffffffffffffffffffffffffffff167f5f7e16dc676677766a70e9c5628aa6c54ddb8b6e5188e2ae1e1f17f1ffbea7164283604051610277929190610b20565b60405180910390a250565b60006102c56040518060400160405280601781526020017f5765206861766520256420746f74616c20776176657321000000000000000000815250600054610638565b600054905090565b60606001805480602002602001604051908101604052809291908181526020016000905b8282101561041557838290600052602060002090600302016040518060600160405290816000820160009054906101000a900473ffffffffffffffffffffffffffffffffffffffff1673ffffffffffffffffffffffffffffffffffffffff1673ffffffffffffffffffffffffffffffffffffffff16815260200160018201805461037a90610ce0565b80601f01602080910402602001604051908101604052809291908181526020018280546103a690610ce0565b80156103f35780601f106103c8576101008083540402835291602001916103f3565b820191906000526020600020905b8154815290600101906020018083116103d657829003601f168201915b50505050508152602001600282015481525050815260200190600101906102f1565b50505050905090565b6001818154811061042e57600080fd5b90600052602060002090600302016000915090508060000160009054906101000a900473ffffffffffffffffffffffffffffffffffffffff169080600101805461047790610ce0565b80601f01602080910402602001604051908101604052809291908181526020018280546104a390610ce0565b80156104f05780601f106104c5576101008083540402835291602001916104f0565b820191906000526020600020905b8154815290600101906020018083116104d357829003601f168201915b5050505050908060020154905083565b610596816040516024016105149190610a6e565b6040516020818303038152906040527f41304fac000000000000000000000000000000000000000000000000000000007bffffffffffffffffffffffffffffffffffffffffffffffffffffffff19166020820180517bffffffffffffffffffffffffffffffffffffffffffffffffffffffff83818316178352505050506106d4565b50565b6106338383836040516024016105b193929190610a90565b6040516020818303038152906040527fe0e9ad4f000000000000000000000000000000000000000000000000000000007bffffffffffffffffffffffffffffffffffffffffffffffffffffffff19166020820180517bffffffffffffffffffffffffffffffffffffffffffffffffffffffff83818316178352505050506106d4565b505050565b6106d0828260405160240161064e929190610ad5565b6040516020818303038152906040527f9710a9d0000000000000000000000000000000000000000000000000000000007bffffffffffffffffffffffffffffffffffffffffffffffffffffffff19166020820180517bffffffffffffffffffffffffffffffffffffffffffffffffffffffff83818316178352505050506106d4565b5050565b60008151905060006a636f6e736f6c652e6c6f679050602083016000808483855afa5050505050565b82805461070990610ce0565b90600052602060002090601f01602090048101928261072b5760008555610772565b82601f1061074457805160ff1916838001178555610772565b82800160010185558215610772579182015b82811115610771578251825591602001919060010190610756565b5b50905061077f9190610783565b5090565b5b8082111561079c576000816000905550600101610784565b5090565b60006107b36107ae84610b75565b610b50565b9050828152602081018484840111156107cb57600080fd5b6107d6848285610c9e565b509392505050565b600082601f8301126107ef57600080fd5b81356107ff8482602086016107a0565b91505092915050565b60008135905061081781610de1565b92915050565b60006020828403121561082f57600080fd5b600082013567ffffffffffffffff81111561084957600080fd5b610855848285016107de565b91505092915050565b60006020828403121561087057600080fd5b600061087e84828501610808565b91505092915050565b600061089383836109a0565b905092915050565b6108a481610c62565b82525050565b6108b381610c62565b82525050565b60006108c482610bb6565b6108ce8185610bd9565b9350836020820285016108e085610ba6565b8060005b8581101561091c57848403895281516108fd8582610887565b945061090883610bcc565b925060208a019950506001810190506108e4565b50829750879550505050505092915050565b600061093982610bc1565b6109438185610bea565b9350610953818560208601610cad565b61095c81610dd0565b840191505092915050565b600061097282610bc1565b61097c8185610bfb565b935061098c818560208601610cad565b61099581610dd0565b840191505092915050565b60006060830160008301516109b8600086018261089b565b50602083015184820360208601526109d0828261092e565b91505060408301516109e560408601826109f0565b508091505092915050565b6109f981610c94565b82525050565b610a0881610c94565b82525050565b6000606082019050610a2360008301866108aa565b8181036020830152610a358185610967565b9050610a4460408301846109ff565b949350505050565b60006020820190508181036000830152610a6681846108b9565b905092915050565b60006020820190508181036000830152610a888184610967565b905092915050565b60006060820190508181036000830152610aaa8186610967565b9050610ab960208301856108aa565b8181036040830152610acb8184610967565b9050949350505050565b60006040820190508181036000830152610aef8185610967565b9050610afe60208301846109ff565b9392505050565b6000602082019050610b1a60008301846109ff565b92915050565b6000604082019050610b3560008301856109ff565b8181036020830152610b478184610967565b90509392505050565b6000610b5a610b6b565b9050610b668282610d12565b919050565b6000604051905090565b600067ffffffffffffffff821115610b9057610b8f610da1565b5b610b9982610dd0565b9050602081019050919050565b6000819050602082019050919050565b600081519050919050565b600081519050919050565b6000602082019050919050565b600082825260208201905092915050565b600082825260208201905092915050565b600082825260208201905092915050565b6000610c1782610c94565b9150610c2283610c94565b9250827fffffffffffffffffffffffffffffffffffffffffffffffffffffffffffffffff03821115610c5757610c56610d43565b5b828201905092915050565b6000610c6d82610c74565b9050919050565b600073ffffffffffffffffffffffffffffffffffffffff82169050919050565b6000819050919050565b82818337600083830152505050565b60005b83811015610ccb578082015181840152602081019050610cb0565b83811115610cda576000848401525b50505050565b60006002820490506001821680610cf857607f821691505b60208210811415610d0c57610d0b610d72565b5b50919050565b610d1b82610dd0565b810181811067ffffffffffffffff82111715610d3a57610d39610da1565b5b80604052505050565b7f4e487b7100000000000000000000000000000000000000000000000000000000600052601160045260246000fd5b7f4e487b7100000000000000000000000000000000000000000000000000000000600052602260045260246000fd5b7f4e487b7100000000000000000000000000000000000000000000000000000000600052604160045260246000fd5b6000601f19601f8301169050919050565b610dea81610c94565b8114610df557600080fd5b5056fea2646970667358221220d159cdc56d51b4926dfb99dbca09a1d7e6513819946be74ee5c47b3b37f8e73964736f6c63430008040033",
    "linkReferences": {},
    "deployedLinkReferences": {}
}